{"abi":[{"type":"function","name":"getPrecompileResponse","inputs":[{"name":"pubKeyX","type":"bytes32","internalType":"bytes32"},{"name":"messageHash","type":"bytes32","internalType":"bytes32"},{"name":"signature","type":"bytes","internalType":"bytes"}],"outputs":[{"name":"ok","type":"bool","internalType":"bool"},{"name":"output","type":"bytes","internalType":"bytes"}],"stateMutability":"view"},{"type":"function","name":"schnorrVerify","inputs":[{"name":"pubKeyX","type":"bytes32","internalType":"bytes32"},{"name":"messageHash","type":"bytes32","internalType":"bytes32"},{"name":"signature","type":"bytes","internalType":"bytes"}],"outputs":[{"name":"isValid","type":"bool","internalType":"bool"}],"stateMutability":"view"},{"type":"function","name":"schnorrVerifyWithLogging","inputs":[{"name":"pubKeyX","type":"bytes32","internalType":"bytes32"},{"name":"messageHash","type":"bytes32","internalType":"bytes32"},{"name":"signature","type":"bytes","internalType":"bytes"}],"outputs":[{"name":"isValid","type":"bool","internalType":"bool"}],"stateMutability":"nonpayable"},{"type":"function","name":"testPrecompile","inputs":[],"outputs":[{"name":"","type":"bool","internalType":"bool"}],"stateMutability":"nonpayable"},{"type":"event","name":"SchnorrVerificationResult","inputs":[{"name":"messageHash","type":"bytes32","indexed":true,"internalType":"bytes32"},{"name":"pubKeyX","type":"bytes32","indexed":true,"internalType":"bytes32"},{"name":"signature","type":"bytes","indexed":false,"internalType":"bytes"},{"name":"isValid","type":"bool","indexed":false,"internalType":"bool"},{"name":"precompileOutput","type":"bytes","indexed":false,"internalType":"bytes"}],"anonymous":false}],"bytecode":{"object":"0x608060405234801561001057600080fd5b5061068e806100206000396000f3fe608060405234801561001057600080fd5b506004361061004c5760003560e01c80639f6f32aa14610051578063bbba50281461006e578063db02d75f14610081578063f74a5ecb14610094575b600080fd5b6100596100b5565b60405190151581526020015b60405180910390f35b61005961007c366004610439565b61014d565b61005961008f366004610439565b61024f565b6100a76100a2366004610439565b61038b565b604051610065929190610509565b6040805181815260608101825260009182918291829190602082018180368337505060405163db02d75f60e01b8152919250309163db02d75f91506101029086908690869060040161052c565b6020604051808303816000875af1158015610121573d6000803e3d6000fd5b505050506040513d601f19601f820116820180604052508101906101459190610554565b935050505090565b6000604082146101785760405162461bcd60e51b815260040161016f9061057d565b60405180910390fd5b60008585858560405160200161019194939291906105b4565b60405160208183030381529060405290506000806102006001600160a01b0316836040516101bf91906105d5565b600060405180830381855afa9150503d80600081146101fa576040519150601f19603f3d011682016040523d82523d6000602084013e6101ff565b606091505b5091509150818015610212575080516020145b8015610243575080601f8151811061022c5761022c6105f1565b6020910101516001600160f81b031916600160f81b145b98975050505050505050565b6000604082146102715760405162461bcd60e51b815260040161016f9061057d565b60008585858560405160200161028a94939291906105b4565b60405160208183030381529060405290506000806102006001600160a01b0316836040516102b891906105d5565b600060405180830381855afa9150503d80600081146102f3576040519150601f19603f3d011682016040523d82523d6000602084013e6102f8565b606091505b5091509150600082801561030d575081516020145b801561033e575081601f81518110610327576103276105f1565b6020910101516001600160f81b031916600160f81b145b905088887f722f0df9d8c22c5c65f945f1b210cbd0c05da657480765feedd96a7907dad6f1898985876040516103779493929190610607565b60405180910390a398975050505050505050565b60006060604083146103af5760405162461bcd60e51b815260040161016f9061057d565b6000868686866040516020016103c894939291906105b4565b60408051601f19818403018152908290529150610200906103ea9083906105d5565b600060405180830381855afa9150503d8060008114610425576040519150601f19603f3d011682016040523d82523d6000602084013e61042a565b606091505b50925092505094509492505050565b6000806000806060858703121561044f57600080fd5b8435935060208501359250604085013567ffffffffffffffff8082111561047557600080fd5b818701915087601f83011261048957600080fd5b81358181111561049857600080fd5b8860208285010111156104aa57600080fd5b95989497505060200194505050565b60005b838110156104d45781810151838201526020016104bc565b50506000910152565b600081518084526104f58160208601602086016104b9565b601f01601f19169290920160200192915050565b821515815260406020820152600061052460408301846104dd565b949350505050565b83815282602082015260606040820152600061054b60608301846104dd565b95945050505050565b60006020828403121561056657600080fd5b8151801515811461057657600080fd5b9392505050565b60208082526018908201527f496e76616c6964207369676e6174757265206c656e6774680000000000000000604082015260600190565b84815283602082015281836040830137600091016040019081529392505050565b600082516105e78184602087016104b9565b9190910192915050565b634e487b7160e01b600052603260045260246000fd5b60608152836060820152838560808301376000608085830101526000601f19601f86011682018415156020840152608083820301604084015261064d60808201856104dd565b97965050505050505056fea264697066735822122071f40b87ad9b7e81e133d4f4dbd0de75618cf9b06343f7cd5ba1b0aa3a4600c264736f6c63430008130033","linkReferences":{}},"methodIdentifiers":{"getPrecompileResponse(bytes32,bytes32,bytes)":"f74a5ecb","schnorrVerify(bytes32,bytes32,bytes)":"bbba5028","schnorrVerifyWithLogging(bytes32,bytes32,bytes)":"db02d75f","testPrecompile()":"9f6f32aa"},"id":26}