{"abi":[{"type":"constructor","inputs":[{"name":"_relayer","type":"address","internalType":"address"}],"stateMutability":"nonpayable"},{"type":"function","name":"bitcoinNonces","inputs":[{"name":"","type":"bytes32","internalType":"bytes32"}],"outputs":[{"name":"","type":"uint256","internalType":"uint256"}],"stateMutability":"view"},{"type":"function","name":"getNonce","inputs":[{"name":"pubKeyX","type":"bytes32","internalType":"bytes32"}],"outputs":[{"name":"","type":"uint256","internalType":"uint256"}],"stateMutability":"view"},{"type":"function","name":"isMessageProcessed","inputs":[{"name":"txid","type":"bytes32","internalType":"bytes32"}],"outputs":[{"name":"","type":"bool","internalType":"bool"}],"stateMutability":"view"},{"type":"function","name":"owner","inputs":[],"outputs":[{"name":"","type":"address","internalType":"address"}],"stateMutability":"view"},{"type":"function","name":"processedMessages","inputs":[{"name":"","type":"bytes32","internalType":"bytes32"}],"outputs":[{"name":"","type":"bool","internalType":"bool"}],"stateMutability":"view"},{"type":"function","name":"receiveMessage","inputs":[{"name":"txid","type":"bytes32","internalType":"bytes32"},{"name":"message","type":"tuple","internalType":"struct BMCPMessageReceiver.BMCPMessage","components":[{"name":"protocol","type":"bytes2","internalType":"bytes2"},{"name":"chainSelector","type":"uint64","internalType":"uint64"},{"name":"targetContract","type":"address","internalType":"address"},{"name":"data","type":"bytes","internalType":"bytes"},{"name":"nonce","type":"uint256","internalType":"uint256"},{"name":"deadline","type":"uint256","internalType":"uint256"},{"name":"authorization","type":"tuple","internalType":"struct BMCPMessageReceiver.Authorization","components":[{"name":"allowedContract","type":"address","internalType":"address"},{"name":"allowedFunction","type":"bytes4","internalType":"bytes4"},{"name":"maxValue","type":"uint256","internalType":"uint256"},{"name":"validUntil","type":"uint256","internalType":"uint256"}]}]},{"name":"proof","type":"tuple","internalType":"struct BMCPMessageReceiver.SchnorrProof","components":[{"name":"pubKeyX","type":"bytes32","internalType":"bytes32"},{"name":"signature","type":"bytes","internalType":"bytes"}]}],"outputs":[{"name":"","type":"bool","internalType":"bool"}],"stateMutability":"nonpayable"},{"type":"function","name":"relayer","inputs":[],"outputs":[{"name":"","type":"address","internalType":"address"}],"stateMutability":"view"},{"type":"function","name":"setRelayer","inputs":[{"name":"_relayer","type":"address","internalType":"address"}],"outputs":[],"stateMutability":"nonpayable"},{"type":"function","name":"verifySignatureOnly","inputs":[{"name":"pubKeyX","type":"bytes32","internalType":"bytes32"},{"name":"messageHash","type":"bytes32","internalType":"bytes32"},{"name":"signature","type":"bytes","internalType":"bytes"}],"outputs":[{"name":"","type":"bool","internalType":"bool"}],"stateMutability":"view"},{"type":"event","name":"AuthorizationViolation","inputs":[{"name":"txid","type":"bytes32","indexed":true,"internalType":"bytes32"},{"name":"reason","type":"string","indexed":false,"internalType":"string"}],"anonymous":false},{"type":"event","name":"FunctionExecuted","inputs":[{"name":"txid","type":"bytes32","indexed":true,"internalType":"bytes32"},{"name":"targetContract","type":"address","indexed":true,"internalType":"address"},{"name":"functionSelector","type":"bytes4","indexed":true,"internalType":"bytes4"},{"name":"success","type":"bool","indexed":false,"internalType":"bool"},{"name":"returnData","type":"bytes","indexed":false,"internalType":"bytes"}],"anonymous":false},{"type":"event","name":"MessageReceived","inputs":[{"name":"txid","type":"bytes32","indexed":true,"internalType":"bytes32"},{"name":"bitcoinPubKeyX","type":"bytes32","indexed":true,"internalType":"bytes32"},{"name":"targetContract","type":"address","indexed":false,"internalType":"address"},{"name":"functionSelector","type":"bytes4","indexed":false,"internalType":"bytes4"},{"name":"nonce","type":"uint256","indexed":false,"internalType":"uint256"}],"anonymous":false},{"type":"event","name":"SignatureVerified","inputs":[{"name":"txid","type":"bytes32","indexed":true,"internalType":"bytes32"},{"name":"bitcoinPubKeyX","type":"bytes32","indexed":false,"internalType":"bytes32"},{"name":"messageHash","type":"bytes32","indexed":false,"internalType":"bytes32"},{"name":"isValid","type":"bool","indexed":false,"internalType":"bool"}],"anonymous":false}],"bytecode":{"object":"0x608060405234801561001057600080fd5b50604051610ff6380380610ff683398101604081905261002f91610062565b60008054336001600160a01b031991821617909155600180549091166001600160a01b0392909216919091179055610092565b60006020828403121561007457600080fd5b81516001600160a01b038116811461008b57600080fd5b9392505050565b610f55806100a16000396000f3fe608060405234801561001057600080fd5b50600436106100935760003560e01c80638406c079116100665780638406c0791461013357806388ba16ab1461015e5780638da5cb5b14610181578063f6f9ce9314610194578063fb47a547146101a757600080fd5b80631bd31ef614610098578063226bcb5f146100d05780634136a33c146100fe5780636548e9bc1461011e575b600080fd5b6100bb6100a6366004610b6d565b60009081526002602052604090205460ff1690565b60405190151581526020015b60405180910390f35b6100f06100de366004610b6d565b60036020526000908152604090205481565b6040519081526020016100c7565b6100f061010c366004610b6d565b60009081526003602052604090205490565b61013161012c366004610b86565b6101ba565b005b600154610146906001600160a01b031681565b6040516001600160a01b0390911681526020016100c7565b6100bb61016c366004610b6d565b60026020526000908152604090205460ff1681565b600054610146906001600160a01b031681565b6100bb6101a2366004610baf565b61027e565b6100bb6101b5366004610c2f565b6103a2565b6000546001600160a01b031633146102065760405162461bcd60e51b815260206004820152600a60248201526927b7363c9037bbb732b960b11b60448201526064015b60405180910390fd5b6001600160a01b03811661025c5760405162461bcd60e51b815260206004820152601760248201527f496e76616c69642072656c61796572206164647265737300000000000000000060448201526064016101fd565b600180546001600160a01b0319166001600160a01b0392909216919091179055565b6000604082146102cb5760405162461bcd60e51b8152602060048201526018602482015277092dcecc2d8d2c840e6d2cedcc2e8eae4ca40d8cadccee8d60431b60448201526064016101fd565b6000858585856040516020016102e49493929190610cac565b60405160208183030381529060405290506000806102006001600160a01b0316836040516103129190610cf1565b600060405180830381855afa9150503d806000811461034d576040519150601f19603f3d011682016040523d82523d6000602084013e610352565b606091505b5091509150818015610365575080516020145b8015610396575080601f8151811061037f5761037f610d0d565b6020910101516001600160f81b031916600160f81b145b98975050505050505050565b6001546000906001600160a01b031633146103ee5760405162461bcd60e51b815260206004820152600c60248201526b27b7363c903932b630bcb2b960a11b60448201526064016101fd565b60008481526002602052604090205460ff161561044d5760405162461bcd60e51b815260206004820152601960248201527f4d65737361676520616c72656164792070726f6365737365640000000000000060448201526064016101fd565b8260a001354211156104935760405162461bcd60e51b815260206004820152600f60248201526e13595cdcd859d948195e1c1a5c9959608a1b60448201526064016101fd565b610120830135156104eb576101208301354211156104eb5760405162461bcd60e51b8152602060048201526015602482015274105d5d1a1bdc9a5e985d1a5bdb88195e1c1a5c9959605a1b60448201526064016101fd565b8135847fd30f45644e04e8c884b64f321be591b1c5d17f3683a79d9ef34a960b026a7fa461051f6060870160408801610b86565b61052c6060880188610d23565b61053591610d71565b604080516001600160a01b0390931683526001600160e01b0319909116602083015260808801359082015260600160405180910390a360006105788585856106a0565b9050806105df5784600080516020610f008339815191526040516105cd9060208082526019908201527f496e76616c6964205363686e6f7272207369676e617475726500000000000000604082015260600190565b60405180910390a26000915050610699565b60006105eb868661089b565b9050806105fd57600092505050610699565b8335600090815260036020526040902054608086013581146106515760405162461bcd60e51b815260206004820152600d60248201526c496e76616c6964206e6f6e636560981b60448201526064016101fd565b61065c816001610da1565b853560009081526003602090815260408083209390935589825260029052908120805460ff191660011790556106928888610a70565b9450505050505b9392505050565b6000806106b06020850185610dc2565b6106c06040860160208701610dec565b6106d06060870160408801610b86565b6106dd6060880188610d23565b88608001358960a001356040516020016106fd9796959493929190610e16565b60408051601f198184030181529190528051602091820120915061072390840184610d23565b905060401461076f5760405162461bcd60e51b8152602060048201526018602482015277092dcecc2d8d2c840e6d2cedcc2e8eae4ca40d8cadccee8d60431b60448201526064016101fd565b60008335826107816020870187610d23565b6040516020016107949493929190610cac565b60405160208183030381529060405290506000806102006001600160a01b0316836040516107c29190610cf1565b600060405180830381855afa9150503d80600081146107fd576040519150601f19603f3d011682016040523d82523d6000602084013e610802565b606091505b50915091506000828015610817575081516020145b8015610848575081601f8151811061083157610831610d0d565b6020910101516001600160f81b031916600160f81b145b6040805189358152602081018890528215158183015290519192508a917f46256cabc3be3214e0a5cafe284432073b752453d7ce1ccc5275a98dec04ca679181900360600190a298975050505050505050565b600060c08201816108af60e0850183610b86565b6001600160a01b031614610949576108ca6020820182610b86565b6001600160a01b03166108e36060850160408601610b86565b6001600160a01b0316146109495783600080516020610f0083398151915260405161093790602080825260159082015274155b985d5d1a1bdc9a5e99590818dbdb9d1c9858dd605a1b604082015260600190565b60405180910390a26000915050610a6a565b600061095b6040830160208401610e89565b6001600160e01b03191614610a025760006109796060850185610d23565b61098291610d71565b90506109946040830160208401610e89565b6001600160e01b0319828116911614610a005784600080516020610f008339815191526040516109ed906020808252601590820152742ab730baba3437b934bd32b210333ab731ba34b7b760591b604082015260600190565b60405180910390a2600092505050610a6a565b505b60008160400135118015610a195750806040013534115b15610a645783600080516020610f008339815191526040516109379060208082526015908201527456616c75652065786365656473206d6178696d756d60581b604082015260600190565b60019150505b92915050565b60008080610a846060850160408601610b86565b6001600160a01b03166000610a9c6060870187610d23565b604051610aaa929190610eb3565b60006040518083038185875af1925050503d8060008114610ae7576040519150601f19603f3d011682016040523d82523d6000602084013e610aec565b606091505b509092509050610aff6060850185610d23565b610b0891610d71565b6001600160e01b031916610b226060860160408701610b86565b6001600160a01b0316867fc0921d99a6174d49d4b9b8fc27e6a1ccb1bd7278c325200de3ef356197332cb48585604051610b5d929190610ec3565b60405180910390a4509392505050565b600060208284031215610b7f57600080fd5b5035919050565b600060208284031215610b9857600080fd5b81356001600160a01b038116811461069957600080fd5b60008060008060608587031215610bc557600080fd5b8435935060208501359250604085013567ffffffffffffffff80821115610beb57600080fd5b818701915087601f830112610bff57600080fd5b813581811115610c0e57600080fd5b886020828501011115610c2057600080fd5b95989497505060200194505050565b600080600060608486031215610c4457600080fd5b83359250602084013567ffffffffffffffff80821115610c6357600080fd5b908501906101408288031215610c7857600080fd5b90925060408501359080821115610c8e57600080fd5b50840160408187031215610ca157600080fd5b809150509250925092565b84815283602082015281836040830137600091016040019081529392505050565b60005b83811015610ce8578181015183820152602001610cd0565b50506000910152565b60008251610d03818460208701610ccd565b9190910192915050565b634e487b7160e01b600052603260045260246000fd5b6000808335601e19843603018112610d3a57600080fd5b83018035915067ffffffffffffffff821115610d5557600080fd5b602001915036819003821315610d6a57600080fd5b9250929050565b6001600160e01b03198135818116916004851015610d995780818660040360031b1b83161692505b505092915050565b80820180821115610a6a57634e487b7160e01b600052601160045260246000fd5b600060208284031215610dd457600080fd5b81356001600160f01b03198116811461069957600080fd5b600060208284031215610dfe57600080fd5b813567ffffffffffffffff8116811461069957600080fd5b6001600160f01b03198816815267ffffffffffffffff871660208201526001600160a01b038616604082015260c0606082018190528101849052838560e0830137600060e08583010152600060e0601f19601f87011683010190508360808301528260a083015298975050505050505050565b600060208284031215610e9b57600080fd5b81356001600160e01b03198116811461069957600080fd5b8183823760009101908152919050565b82151581526040602082015260008251806040840152610eea816060850160208701610ccd565b601f01601f191691909101606001939250505056fef3d0f6152678f25d8ccacdca3862546ee6140231e46bb579aad780c77e991c29a26469706673582212208a16d89582ffb722879f8cb6f3a2c62b66c43dc81588e0c46b7f809d485a0b4d64736f6c63430008130033","linkReferences":{}},"methodIdentifiers":{"bitcoinNonces(bytes32)":"226bcb5f","getNonce(bytes32)":"4136a33c","isMessageProcessed(bytes32)":"1bd31ef6","owner()":"8da5cb5b","processedMessages(bytes32)":"88ba16ab","receiveMessage(bytes32,(bytes2,uint64,address,bytes,uint256,uint256,(address,bytes4,uint256,uint256)),(bytes32,bytes))":"fb47a547","relayer()":"8406c079","setRelayer(address)":"6548e9bc","verifySignatureOnly(bytes32,bytes32,bytes)":"f6f9ce93"},"id":23}