{"abi":[{"type":"function","name":"balances","inputs":[{"name":"","type":"address","internalType":"address"}],"outputs":[{"name":"","type":"uint256","internalType":"uint256"}],"stateMutability":"view"},{"type":"function","name":"batchExecute","inputs":[{"name":"targets","type":"address[]","internalType":"address[]"},{"name":"calls","type":"bytes[]","internalType":"bytes[]"}],"outputs":[],"stateMutability":"nonpayable"},{"type":"function","name":"dataStore","inputs":[{"name":"","type":"bytes32","internalType":"bytes32"}],"outputs":[{"name":"","type":"bytes","internalType":"bytes"}],"stateMutability":"view"},{"type":"function","name":"getBalance","inputs":[{"name":"user","type":"address","internalType":"address"}],"outputs":[{"name":"","type":"uint256","internalType":"uint256"}],"stateMutability":"view"},{"type":"function","name":"getData","inputs":[{"name":"key","type":"bytes32","internalType":"bytes32"}],"outputs":[{"name":"","type":"bytes","internalType":"bytes"}],"stateMutability":"view"},{"type":"function","name":"getMessage","inputs":[{"name":"user","type":"address","internalType":"address"}],"outputs":[{"name":"","type":"string","internalType":"string"}],"stateMutability":"view"},{"type":"function","name":"messageCount","inputs":[],"outputs":[{"name":"","type":"uint256","internalType":"uint256"}],"stateMutability":"view"},{"type":"function","name":"mint","inputs":[{"name":"to","type":"address","internalType":"address"},{"name":"amount","type":"uint256","internalType":"uint256"}],"outputs":[],"stateMutability":"nonpayable"},{"type":"function","name":"storeData","inputs":[{"name":"key","type":"bytes32","internalType":"bytes32"},{"name":"data","type":"bytes","internalType":"bytes"}],"outputs":[],"stateMutability":"nonpayable"},{"type":"function","name":"storeMessage","inputs":[{"name":"message","type":"string","internalType":"string"}],"outputs":[],"stateMutability":"nonpayable"},{"type":"function","name":"swap","inputs":[{"name":"tokenIn","type":"address","internalType":"address"},{"name":"tokenOut","type":"address","internalType":"address"},{"name":"amountIn","type":"uint256","internalType":"uint256"},{"name":"minAmountOut","type":"uint256","internalType":"uint256"}],"outputs":[{"name":"amountOut","type":"uint256","internalType":"uint256"}],"stateMutability":"nonpayable"},{"type":"function","name":"transfer","inputs":[{"name":"to","type":"address","internalType":"address"},{"name":"amount","type":"uint256","internalType":"uint256"}],"outputs":[],"stateMutability":"nonpayable"},{"type":"function","name":"userMessages","inputs":[{"name":"","type":"address","internalType":"address"}],"outputs":[{"name":"","type":"string","internalType":"string"}],"stateMutability":"view"},{"type":"event","name":"BatchExecuted","inputs":[{"name":"targets","type":"address[]","indexed":false,"internalType":"address[]"},{"name":"calls","type":"bytes[]","indexed":false,"internalType":"bytes[]"},{"name":"successes","type":"bool[]","indexed":false,"internalType":"bool[]"}],"anonymous":false},{"type":"event","name":"DataStored","inputs":[{"name":"key","type":"bytes32","indexed":true,"internalType":"bytes32"},{"name":"data","type":"bytes","indexed":false,"internalType":"bytes"},{"name":"storer","type":"address","indexed":true,"internalType":"address"}],"anonymous":false},{"type":"event","name":"MessageReceived","inputs":[{"name":"sender","type":"address","indexed":true,"internalType":"address"},{"name":"message","type":"string","indexed":false,"internalType":"string"},{"name":"timestamp","type":"uint256","indexed":false,"internalType":"uint256"}],"anonymous":false},{"type":"event","name":"TokensTransferred","inputs":[{"name":"from","type":"address","indexed":true,"internalType":"address"},{"name":"to","type":"address","indexed":true,"internalType":"address"},{"name":"amount","type":"uint256","indexed":false,"internalType":"uint256"}],"anonymous":false}],"bytecode":{"object":"0x608060405234801561001057600080fd5b50610fd9806100206000396000f3fe608060405234801561001057600080fd5b50600436106100cf5760003560e01c80636cd947ee1161008c578063a9059cbb11610066578063a9059cbb146101a4578063d4e36ba7146101b7578063f8b2cb4f146101ca578063fe029156146101f357600080fd5b80636cd947ee1461016b57806380c3da8d1461017e5780639730174d1461019157600080fd5b806327e235e3146100d45780633dbcc8d114610107578063401ac1cc1461011057806340c10f191461013057806354f6127f1461014557806355448fe114610158575b600080fd5b6100f46100e2366004610938565b60016020526000908152604090205481565b6040519081526020015b60405180910390f35b6100f460035481565b61012361011e36600461095a565b610206565b6040516100fe91906109b9565b61014361013e3660046109cc565b6102a0565b005b61012361015336600461095a565b610350565b610123610166366004610938565b6103f2565b610123610179366004610938565b610419565b61014361018c366004610a42565b610432565b61014361019f366004610af0565b6105ec565b6101436101b23660046109cc565b61064f565b6101436101c5366004610b3c565b61076b565b6100f46101d8366004610938565b6001600160a01b031660009081526001602052604090205490565b6100f4610201366004610b7e565b6107e4565b6002602052600090815260409020805461021f90610bc0565b80601f016020809104026020016040519081016040528092919081815260200182805461024b90610bc0565b80156102985780601f1061026d57610100808354040283529160200191610298565b820191906000526020600020905b81548152906001019060200180831161027b57829003601f168201915b505050505081565b6001600160a01b0382166102ef5760405162461bcd60e51b8152602060048201526011602482015270125b9d985b1a59081c9958da5c1a595b9d607a1b60448201526064015b60405180910390fd5b6001600160a01b03821660009081526001602052604081208054839290610317908490610c10565b90915550506040518181526001600160a01b03831690600090600080516020610f84833981519152906020015b60405180910390a35050565b600081815260026020526040902080546060919061036d90610bc0565b80601f016020809104026020016040519081016040528092919081815260200182805461039990610bc0565b80156103e65780601f106103bb576101008083540402835291602001916103e6565b820191906000526020600020905b8154815290600101906020018083116103c957829003601f168201915b50505050509050919050565b6001600160a01b038116600090815260208190526040902080546060919061036d90610bc0565b6000602081905290815260409020805461021f90610bc0565b8281146104735760405162461bcd60e51b815260206004820152600f60248201526e098cadccee8d040dad2e6dac2e8c6d608b1b60448201526064016102e6565b60008367ffffffffffffffff81111561048e5761048e610c29565b6040519080825280602002602001820160405280156104b7578160200160208202803683370190505b50905060005b848110156105a55760008686838181106104d9576104d9610c3f565b90506020020160208101906104ee9190610938565b6001600160a01b031685858481811061050957610509610c3f565b905060200281019061051b9190610c55565b604051610529929190610c9c565b6000604051808303816000865af19150503d8060008114610566576040519150601f19603f3d011682016040523d82523d6000602084013e61056b565b606091505b505090508083838151811061058257610582610c3f565b91151560209283029190910190910152508061059d81610cac565b9150506104bd565b507ffc24a60e4e1e5d64a7799fc1a94070cc0571fbec1f35afacd9cc70d265d7aa1185858585856040516105dd959493929190610d2b565b60405180910390a15050505050565b6000838152600260205260409020610605828483610e6f565b50336001600160a01b0316837f390e3be6d9d2f83f38eec52b113661157707ef3dc48a675d9928d4871b90bf398484604051610642929190610f30565b60405180910390a3505050565b6001600160a01b0382166106995760405162461bcd60e51b8152602060048201526011602482015270125b9d985b1a59081c9958da5c1a595b9d607a1b60448201526064016102e6565b336000908152600160205260409020548111156106ef5760405162461bcd60e51b8152602060048201526014602482015273496e73756666696369656e742062616c616e636560601b60448201526064016102e6565b336000908152600160205260408120805483929061070e908490610f4c565b90915550506001600160a01b0382166000908152600160205260408120805483929061073b908490610c10565b90915550506040518181526001600160a01b038316903390600080516020610f8483398151915290602001610344565b336000908152602081905260409020610785828483610e6f565b506003805490600061079683610cac565b9190505550336001600160a01b03167fb4623f4129bbc101151a5da2e22ece05ea3a1adbe75ed382d481904d1254f0ed8383426040516107d893929190610f5f565b60405180910390a25050565b60006001600160a01b0385161580159061080657506001600160a01b03841615155b6108435760405162461bcd60e51b815260206004820152600e60248201526d496e76616c696420746f6b656e7360901b60448201526064016102e6565b600083116108845760405162461bcd60e51b815260206004820152600e60248201526d125b9d985b1a5908185b5bdd5b9d60921b60448201526064016102e6565b5081818110156108ca5760405162461bcd60e51b81526020600482015260116024820152700a6d8d2e0e0c2ceca40e8dede40d0d2ced607b1b60448201526064016102e6565b60405183815230903390600080516020610f848339815191529060200160405180910390a360405181815233903090600080516020610f848339815191529060200160405180910390a3949350505050565b80356001600160a01b038116811461093357600080fd5b919050565b60006020828403121561094a57600080fd5b6109538261091c565b9392505050565b60006020828403121561096c57600080fd5b5035919050565b6000815180845260005b818110156109995760208185018101518683018201520161097d565b506000602082860101526020601f19601f83011685010191505092915050565b6020815260006109536020830184610973565b600080604083850312156109df57600080fd5b6109e88361091c565b946020939093013593505050565b60008083601f840112610a0857600080fd5b50813567ffffffffffffffff811115610a2057600080fd5b6020830191508360208260051b8501011115610a3b57600080fd5b9250929050565b60008060008060408587031215610a5857600080fd5b843567ffffffffffffffff80821115610a7057600080fd5b610a7c888389016109f6565b90965094506020870135915080821115610a9557600080fd5b50610aa2878288016109f6565b95989497509550505050565b60008083601f840112610ac057600080fd5b50813567ffffffffffffffff811115610ad857600080fd5b602083019150836020828501011115610a3b57600080fd5b600080600060408486031215610b0557600080fd5b83359250602084013567ffffffffffffffff811115610b2357600080fd5b610b2f86828701610aae565b9497909650939450505050565b60008060208385031215610b4f57600080fd5b823567ffffffffffffffff811115610b6657600080fd5b610b7285828601610aae565b90969095509350505050565b60008060008060808587031215610b9457600080fd5b610b9d8561091c565b9350610bab6020860161091c565b93969395505050506040820135916060013590565b600181811c90821680610bd457607f821691505b602082108103610bf457634e487b7160e01b600052602260045260246000fd5b50919050565b634e487b7160e01b600052601160045260246000fd5b80820180821115610c2357610c23610bfa565b92915050565b634e487b7160e01b600052604160045260246000fd5b634e487b7160e01b600052603260045260246000fd5b6000808335601e19843603018112610c6c57600080fd5b83018035915067ffffffffffffffff821115610c8757600080fd5b602001915036819003821315610a3b57600080fd5b8183823760009101908152919050565b600060018201610cbe57610cbe610bfa565b5060010190565b81835281816020850137506000828201602090810191909152601f909101601f19169091010190565b600081518084526020808501945080840160005b83811015610d20578151151587529582019590820190600101610d02565b509495945050505050565b6060808252810185905260008660808301825b88811015610d6c576001600160a01b03610d578461091c565b16825260209283019290910190600101610d3e565b506020915083810382850152808682528282019050828760051b8301018860005b89811015610dfd57848303601f190184528135368c9003601e19018112610db357600080fd5b8b01868101903567ffffffffffffffff811115610dcf57600080fd5b803603821315610dde57600080fd5b610de9858284610cc5565b958801959450505090850190600101610d8d565b50508581036040870152610e118188610cee565b9b9a5050505050505050505050565b601f821115610e6a57600081815260208120601f850160051c81016020861015610e475750805b601f850160051c820191505b81811015610e6657828155600101610e53565b5050505b505050565b67ffffffffffffffff831115610e8757610e87610c29565b610e9b83610e958354610bc0565b83610e20565b6000601f841160018114610ecf5760008515610eb75750838201355b600019600387901b1c1916600186901b178355610f29565b600083815260209020601f19861690835b82811015610f005786850135825560209485019460019092019101610ee0565b5086821015610f1d5760001960f88860031b161c19848701351681555b505060018560011b0183555b5050505050565b602081526000610f44602083018486610cc5565b949350505050565b81810381811115610c2357610c23610bfa565b604081526000610f73604083018587610cc5565b905082602083015294935050505056fe1b89874203ff7f0bba87c969ada3f32fda22ed38a6706d35199d21280c7811b1a2646970667358221220599fe4abbac218f8f1dc5f6d126104e382ba52fbdafc93b7a2868eef71a413ec64736f6c63430008130033","linkReferences":{}},"methodIdentifiers":{"balances(address)":"27e235e3","batchExecute(address[],bytes[])":"80c3da8d","dataStore(bytes32)":"401ac1cc","getBalance(address)":"f8b2cb4f","getData(bytes32)":"54f6127f","getMessage(address)":"55448fe1","messageCount()":"3dbcc8d1","mint(address,uint256)":"40c10f19","storeData(bytes32,bytes)":"9730174d","storeMessage(string)":"d4e36ba7","swap(address,address,uint256,uint256)":"fe029156","transfer(address,uint256)":"a9059cbb","userMessages(address)":"6cd947ee"},"id":24}